{
  "contractName": "ERC721",
  "abi": [
    {
      "anonymous": false,
      "inputs": [
        {
          "indexed": true,
          "internalType": "address",
          "name": "from",
          "type": "address"
        },
        {
          "indexed": true,
          "internalType": "address",
          "name": "to",
          "type": "address"
        },
        {
          "indexed": true,
          "internalType": "uint256",
          "name": "tokenId",
          "type": "uint256"
        }
      ],
      "name": "Transfer",
      "type": "event"
    },
    {
      "inputs": [
        {
          "internalType": "address",
          "name": "_owner",
          "type": "address"
        }
      ],
      "name": "balanceOf",
      "outputs": [
        {
          "internalType": "uint256",
          "name": "",
          "type": "uint256"
        }
      ],
      "stateMutability": "view",
      "type": "function"
    },
    {
      "inputs": [
        {
          "internalType": "uint256",
          "name": "_tokenId",
          "type": "uint256"
        }
      ],
      "name": "ownerOf",
      "outputs": [
        {
          "internalType": "address",
          "name": "",
          "type": "address"
        }
      ],
      "stateMutability": "view",
      "type": "function"
    }
  ],
  "bytecode": "0x608060405234801561001057600080fd5b50610424806100206000396000f3fe608060405234801561001057600080fd5b50600436106100365760003560e01c80636352211e1461003b57806370a082311461006b575b600080fd5b6100556004803603810190610050919061023f565b61009b565b60405161006291906102ad565b60405180910390f35b610085600480360381019061008091906102f4565b61014c565b6040516100929190610330565b60405180910390f35b60008060008084815260200190815260200160002060009054906101000a900473ffffffffffffffffffffffffffffffffffffffff169050600073ffffffffffffffffffffffffffffffffffffffff168173ffffffffffffffffffffffffffffffffffffffff161415610143576040517f08c379a000000000000000000000000000000000000000000000000000000000815260040161013a906103ce565b60405180910390fd5b80915050919050565b60008073ffffffffffffffffffffffffffffffffffffffff168273ffffffffffffffffffffffffffffffffffffffff1614156101bd576040517f08c379a00000000000000000000000000000000000000000000000000000000081526004016101b4906103ce565b60405180910390fd5b600160008373ffffffffffffffffffffffffffffffffffffffff1673ffffffffffffffffffffffffffffffffffffffff168152602001908152602001600020549050919050565b600080fd5b6000819050919050565b61021c81610209565b811461022757600080fd5b50565b60008135905061023981610213565b92915050565b60006020828403121561025557610254610204565b5b60006102638482850161022a565b91505092915050565b600073ffffffffffffffffffffffffffffffffffffffff82169050919050565b60006102978261026c565b9050919050565b6102a78161028c565b82525050565b60006020820190506102c2600083018461029e565b92915050565b6102d18161028c565b81146102dc57600080fd5b50565b6000813590506102ee816102c8565b92915050565b60006020828403121561030a57610309610204565b5b6000610318848285016102df565b91505092915050565b61032a81610209565b82525050565b60006020820190506103456000830184610321565b92915050565b600082825260208201905092915050565b7f6f776e657220717565727920666f72206e6f6e2d6578697374656e7420746f6b60008201527f656e000000000000000000000000000000000000000000000000000000000000602082015250565b60006103b860228361034b565b91506103c38261035c565b604082019050919050565b600060208201905081810360008301526103e7816103ab565b905091905056fea2646970667358221220757ae828cf26d8fb3d5a57197f8f4de1ff903ea821db3ecb8554825a6a48131d64736f6c63430008090033",
  "immutableReferences": {},
  "source": "// SPDX-License-Identifier: MIT\npragma solidity >=0.4.22 <0.9.0;\n\n   /*\n\n        we want to mint a token \n        building out the minting function\n            1. nft to point to an address\n            2. keep track of the token ids\n            3. keep track of the token owner addresses to token ids\n            4. keep track of how many tokens an owner address has\n            5. create an event that emits a transfer log - contract address, where it is being minted to and id\n\n    */\ncontract ERC721 {\n\n    //shows data, logs our transfer event\n    event Transfer(address indexed from, address indexed to, uint indexed tokenId);\n\n    //create a map in solidity\n    //mapping in solidity creates a hash table of key pair values\n    //create mapping from token id to the owner addresse\n    //helps keep track of all the owners of the NFT\n    mapping(uint => address) private _tokenOwner;\n\n    //mapping from owner to number of owned tokens\n    //how many tokens an address has\n    //keeps track of the total tokens that a given address has\n    mapping(address => uint) private _ownedTokensCount;\n\n    // @notice Count all NFTs assigned to an owner\n    // @dev NFTs assigned to the zero address are considered invalid, and this\n    //  function throws for queries about the zero address.\n    // @param _owner An address for whom to query the balance\n    // @return The number of NFTs owned by `_owner`, possibly zero\n    function balanceOf(address _owner) public view returns(uint256){\n\n        require(_owner != address(0),'owner query for non-existent token');\n        return _ownedTokensCount[_owner];\n    }\n\n    // @notice Find the owner of an NFT\n    // @dev NFTs assigned to zero address are considered invalid, and queries\n    // about them do throw.\n    // @param _tokenId The identifier for an NFT\n    // @return The address of the owner of the NFT\n    function ownerOf(uint256 _tokenId) external view returns (address){\n\n        address owner = _tokenOwner[_tokenId];\n        require(owner != address(0),'owner query for non-existent token');\n        return owner;\n\n    }\n\n\n    function _exists(uint tokenId) internal view returns (bool){\n        //setting address to nft owner to check the mapping of the address from token ownser at the tokenId \n        address owner = _tokenOwner[tokenId];\n        //return the addres is not zero (truthiness)\n        return owner != address(0);\n    }\n\n    function _mint(address to, uint tokenId) internal {\n\n        //require that the address is not zero \n        require(to != address(0),'token address is invalid, ERC721 is minting to zero address');\n        //requires that the token does not already exists\n        require(!_exists(tokenId),'ERC721 token already minted');\n        // we are adding a new address with at oken id for minting \n        _tokenOwner[tokenId] = to;\n        // keeping track of each address that is minting and adding one to the count\n        _ownedTokensCount[to] += 1;\n        //'to' is the person/bot that is minting the NFT\n        emit Transfer(address(0), to, tokenId);\n    \n    }\n\n}",
  "sourcePath": "/Users/samisabir-idrissi/code/nft_development/nftmarketplace_birdz/nft-marketplace-starter-kit/src/contracts/ERC721.sol",
  "compiler": {
    "name": "solc",
    "version": "0.8.9+commit.e5eed63a.Emscripten.clang"
  },
  "schemaVersion": "3.4.3",
  "updatedAt": "2021-11-05T00:37:11.289Z",
  "devdoc": {
    "kind": "dev",
    "methods": {},
    "version": 1
  },
  "userdoc": {
    "kind": "user",
    "methods": {},
    "version": 1
  }
}