{
  "contractName": "KryptoBird",
  "abi": [
    {
      "inputs": [],
      "stateMutability": "nonpayable",
      "type": "constructor"
    },
    {
      "anonymous": false,
      "inputs": [
        {
          "indexed": true,
          "internalType": "address",
          "name": "from",
          "type": "address"
        },
        {
          "indexed": true,
          "internalType": "address",
          "name": "to",
          "type": "address"
        },
        {
          "indexed": true,
          "internalType": "uint256",
          "name": "tokenId",
          "type": "uint256"
        }
      ],
      "name": "Transfer",
      "type": "event"
    },
    {
      "inputs": [
        {
          "internalType": "uint256",
          "name": "",
          "type": "uint256"
        }
      ],
      "name": "KryptoBirdz",
      "outputs": [
        {
          "internalType": "string",
          "name": "",
          "type": "string"
        }
      ],
      "stateMutability": "view",
      "type": "function",
      "constant": true
    },
    {
      "inputs": [
        {
          "internalType": "address",
          "name": "_owner",
          "type": "address"
        }
      ],
      "name": "balanceOf",
      "outputs": [
        {
          "internalType": "uint256",
          "name": "",
          "type": "uint256"
        }
      ],
      "stateMutability": "view",
      "type": "function",
      "constant": true
    },
    {
      "inputs": [],
      "name": "name",
      "outputs": [
        {
          "internalType": "string",
          "name": "",
          "type": "string"
        }
      ],
      "stateMutability": "view",
      "type": "function",
      "constant": true
    },
    {
      "inputs": [
        {
          "internalType": "uint256",
          "name": "_tokenId",
          "type": "uint256"
        }
      ],
      "name": "ownerOf",
      "outputs": [
        {
          "internalType": "address",
          "name": "",
          "type": "address"
        }
      ],
      "stateMutability": "view",
      "type": "function",
      "constant": true
    },
    {
      "inputs": [],
      "name": "symbol",
      "outputs": [
        {
          "internalType": "string",
          "name": "",
          "type": "string"
        }
      ],
      "stateMutability": "view",
      "type": "function",
      "constant": true
    },
    {
      "inputs": [
        {
          "internalType": "string",
          "name": "_kryptoBird",
          "type": "string"
        }
      ],
      "name": "mint",
      "outputs": [],
      "stateMutability": "nonpayable",
      "type": "function"
    }
  ],
  "bytecode": "0x60806040523480156200001157600080fd5b506040518060400160405280600a81526020017f4b727970746f42696473000000000000000000000000000000000000000000008152506040518060400160405280600681526020017f4b424952445a00000000000000000000000000000000000000000000000000008152508181816000908051906020019062000098929190620000bc565b508060019080519060200190620000b1929190620000bc565b5050505050620001d1565b828054620000ca906200019b565b90600052602060002090601f016020900481019282620000ee57600085556200013a565b82601f106200010957805160ff19168380011785556200013a565b828001600101855582156200013a579182015b82811115620001395782518255916020019190600101906200011c565b5b5090506200014991906200014d565b5090565b5b80821115620001685760008160009055506001016200014e565b5090565b7f4e487b7100000000000000000000000000000000000000000000000000000000600052602260045260246000fd5b60006002820490506001821680620001b457607f821691505b60208210811415620001cb57620001ca6200016c565b5b50919050565b610fb780620001e16000396000f3fe608060405234801561001057600080fd5b50600436106100625760003560e01c806306fdde03146100675780636352211e1461008557806370a08231146100b557806395d89b41146100e5578063a3a1ff5814610103578063d85d3d2714610133575b600080fd5b61006f61014f565b60405161007c91906108fc565b60405180910390f35b61009f600480360381019061009a9190610968565b6101e1565b6040516100ac91906109d6565b60405180910390f35b6100cf60048036038101906100ca9190610a1d565b610293565b6040516100dc9190610a59565b60405180910390f35b6100ed61034b565b6040516100fa91906108fc565b60405180910390f35b61011d60048036038101906101189190610968565b6103dd565b60405161012a91906108fc565b60405180910390f35b61014d60048036038101906101489190610ba9565b610489565b005b60606000805461015e90610c21565b80601f016020809104026020016040519081016040528092919081815260200182805461018a90610c21565b80156101d75780601f106101ac576101008083540402835291602001916101d7565b820191906000526020600020905b8154815290600101906020018083116101ba57829003601f168201915b5050505050905090565b6000806002600084815260200190815260200160002060009054906101000a900473ffffffffffffffffffffffffffffffffffffffff169050600073ffffffffffffffffffffffffffffffffffffffff168173ffffffffffffffffffffffffffffffffffffffff16141561028a576040517f08c379a000000000000000000000000000000000000000000000000000000000815260040161028190610cc5565b60405180910390fd5b80915050919050565b60008073ffffffffffffffffffffffffffffffffffffffff168273ffffffffffffffffffffffffffffffffffffffff161415610304576040517f08c379a00000000000000000000000000000000000000000000000000000000081526004016102fb90610cc5565b60405180910390fd5b600360008373ffffffffffffffffffffffffffffffffffffffff1673ffffffffffffffffffffffffffffffffffffffff168152602001908152602001600020549050919050565b60606001805461035a90610c21565b80601f016020809104026020016040519081016040528092919081815260200182805461038690610c21565b80156103d35780601f106103a8576101008083540402835291602001916103d3565b820191906000526020600020905b8154815290600101906020018083116103b657829003601f168201915b5050505050905090565b600481815481106103ed57600080fd5b90600052602060002001600091509050805461040890610c21565b80601f016020809104026020016040519081016040528092919081815260200182805461043490610c21565b80156104815780601f1061045657610100808354040283529160200191610481565b820191906000526020600020905b81548152906001019060200180831161046457829003601f168201915b505050505081565b6005816040516104999190610d21565b908152602001604051809103902060009054906101000a900460ff16156104f5576040517f08c379a00000000000000000000000000000000000000000000000000000000081526004016104ec90610daa565b60405180910390fd5b6004819080600181540180825580915050600190039060005260206000200160009091909190915090805190602001906105309291906107c0565b50600060016004805490506105459190610df9565b9050610551338261058c565b60016005836040516105639190610d21565b908152602001604051809103902060006101000a81548160ff0219169083151502179055505050565b600073ffffffffffffffffffffffffffffffffffffffff168273ffffffffffffffffffffffffffffffffffffffff1614156105fc576040517f08c379a00000000000000000000000000000000000000000000000000000000081526004016105f390610e9f565b60405180910390fd5b6106058161074e565b15610645576040517f08c379a000000000000000000000000000000000000000000000000000000000815260040161063c90610f0b565b60405180910390fd5b816002600083815260200190815260200160002060006101000a81548173ffffffffffffffffffffffffffffffffffffffff021916908373ffffffffffffffffffffffffffffffffffffffff1602179055506001600360008473ffffffffffffffffffffffffffffffffffffffff1673ffffffffffffffffffffffffffffffffffffffff16815260200190815260200160002060008282546106e79190610f2b565b92505081905550808273ffffffffffffffffffffffffffffffffffffffff16600073ffffffffffffffffffffffffffffffffffffffff167fddf252ad1be2c89b69c2b068fc378daa952ba7f163c4a11628f55a4df523b3ef60405160405180910390a45050565b6000806002600084815260200190815260200160002060009054906101000a900473ffffffffffffffffffffffffffffffffffffffff169050600073ffffffffffffffffffffffffffffffffffffffff168173ffffffffffffffffffffffffffffffffffffffff161415915050919050565b8280546107cc90610c21565b90600052602060002090601f0160209004810192826107ee5760008555610835565b82601f1061080757805160ff1916838001178555610835565b82800160010185558215610835579182015b82811115610834578251825591602001919060010190610819565b5b5090506108429190610846565b5090565b5b8082111561085f576000816000905550600101610847565b5090565b600081519050919050565b600082825260208201905092915050565b60005b8381101561089d578082015181840152602081019050610882565b838111156108ac576000848401525b50505050565b6000601f19601f8301169050919050565b60006108ce82610863565b6108d8818561086e565b93506108e881856020860161087f565b6108f1816108b2565b840191505092915050565b6000602082019050818103600083015261091681846108c3565b905092915050565b6000604051905090565b600080fd5b600080fd5b6000819050919050565b61094581610932565b811461095057600080fd5b50565b6000813590506109628161093c565b92915050565b60006020828403121561097e5761097d610928565b5b600061098c84828501610953565b91505092915050565b600073ffffffffffffffffffffffffffffffffffffffff82169050919050565b60006109c082610995565b9050919050565b6109d0816109b5565b82525050565b60006020820190506109eb60008301846109c7565b92915050565b6109fa816109b5565b8114610a0557600080fd5b50565b600081359050610a17816109f1565b92915050565b600060208284031215610a3357610a32610928565b5b6000610a4184828501610a08565b91505092915050565b610a5381610932565b82525050565b6000602082019050610a6e6000830184610a4a565b92915050565b600080fd5b600080fd5b7f4e487b7100000000000000000000000000000000000000000000000000000000600052604160045260246000fd5b610ab6826108b2565b810181811067ffffffffffffffff82111715610ad557610ad4610a7e565b5b80604052505050565b6000610ae861091e565b9050610af48282610aad565b919050565b600067ffffffffffffffff821115610b1457610b13610a7e565b5b610b1d826108b2565b9050602081019050919050565b82818337600083830152505050565b6000610b4c610b4784610af9565b610ade565b905082815260208101848484011115610b6857610b67610a79565b5b610b73848285610b2a565b509392505050565b600082601f830112610b9057610b8f610a74565b5b8135610ba0848260208601610b39565b91505092915050565b600060208284031215610bbf57610bbe610928565b5b600082013567ffffffffffffffff811115610bdd57610bdc61092d565b5b610be984828501610b7b565b91505092915050565b7f4e487b7100000000000000000000000000000000000000000000000000000000600052602260045260246000fd5b60006002820490506001821680610c3957607f821691505b60208210811415610c4d57610c4c610bf2565b5b50919050565b7f6f776e657220717565727920666f72206e6f6e2d6578697374656e7420746f6b60008201527f656e000000000000000000000000000000000000000000000000000000000000602082015250565b6000610caf60228361086e565b9150610cba82610c53565b604082019050919050565b60006020820190508181036000830152610cde81610ca2565b9050919050565b600081905092915050565b6000610cfb82610863565b610d058185610ce5565b9350610d1581856020860161087f565b80840191505092915050565b6000610d2d8284610cf0565b915081905092915050565b7f4572726f72202d206b727970746f206269726420616c7265616479206578697360008201527f7473000000000000000000000000000000000000000000000000000000000000602082015250565b6000610d9460228361086e565b9150610d9f82610d38565b604082019050919050565b60006020820190508181036000830152610dc381610d87565b9050919050565b7f4e487b7100000000000000000000000000000000000000000000000000000000600052601160045260246000fd5b6000610e0482610932565b9150610e0f83610932565b925082821015610e2257610e21610dca565b5b828203905092915050565b7f746f6b656e206164647265737320697320696e76616c69642c2045524337323160008201527f206973206d696e74696e6720746f207a65726f20616464726573730000000000602082015250565b6000610e89603b8361086e565b9150610e9482610e2d565b604082019050919050565b60006020820190508181036000830152610eb881610e7c565b9050919050565b7f45524337323120746f6b656e20616c7265616479206d696e7465640000000000600082015250565b6000610ef5601b8361086e565b9150610f0082610ebf565b602082019050919050565b60006020820190508181036000830152610f2481610ee8565b9050919050565b6000610f3682610932565b9150610f4183610932565b9250827fffffffffffffffffffffffffffffffffffffffffffffffffffffffffffffffff03821115610f7657610f75610dca565b5b82820190509291505056fea26469706673582212201e5143de7053f9ffd7fe030ecfd86dd9101d8d1ff5f7509780f980668e3e9bd564736f6c63430008090033",
  "immutableReferences": {},
  "source": "// SPDX-License-Identifier: MIT\npragma solidity >=0.4.22 <0.9.0;\n\nimport './ERC721Connector.sol';\n\ncontract KryptoBird is ERC721Connector {\n\n    // array to store our nfts\n    string[] public KryptoBirdz;\n\n    //mapping to check if an id already exists\n    //allows us to keep track of the nfts we mint\n    mapping(string => bool) _KryptoBirdzExists; //every time we mint we will add true to each nft we mint \n\n \n    function mint(string memory _kryptoBird) public {\n       \n       require(!_KryptoBirdzExists[_kryptoBird], 'Error - krypto bird already exists');\n        KryptoBirdz.push(_kryptoBird);\n        uint _id = KryptoBirdz.length - 1; \n        _mint(msg.sender, _id);\n        _KryptoBirdzExists[_kryptoBird] = true;\n\n    }\n\n    //initialize the contract with name and symbol \n    constructor() ERC721Connector('KryptoBids','KBIRDZ') public {}\n     \n\n\n}",
  "sourcePath": "/Users/samisabir-idrissi/code/nft_development/nftmarketplace_birdz/nft-marketplace-starter-kit/src/contracts/KryptoBirdz.sol",
  "compiler": {
    "name": "solc",
    "version": "0.8.9+commit.e5eed63a.Emscripten.clang"
  },
  "schemaVersion": "3.4.3",
  "updatedAt": "2021-11-05T00:40:57.280Z",
  "networkType": "ethereum",
  "devdoc": {
    "kind": "dev",
    "methods": {},
    "version": 1
  },
  "userdoc": {
    "kind": "user",
    "methods": {},
    "version": 1
  }
}